:100000000C940F010C94611F0C943A1F0C9437014F
:100010000C9437010C9437010C9437010C94370180
:100020000C9437010C9437010C9437010C94370170
:100030000C9437010C9437010C9437010C94370160
:100040000C94F01E0C9437010C9437010C9437017A
:100050000C9437010C9437010C9437010C94370140
:100060000C9437010C9437010100010001000100DC
:100070000100010001010001010001000100010176
:100080000001010100000101000101000101010165
:100090000001010001010101000100010100010056
:1000A0000101010100010101010100000100010045
:1000B0000100000100010100010001000001000138
:1000C0000000010100010100010001010001000127
:1000D0000100010001010001000100010101010115
:1000E0000101010101010101010154553300545581
:1000F000320054553100524F4C0053545400524E6C
:1001000044005354500046525A00474C4400545245
:1001100053004F4354005245560052455000574833
:100120004F00444F520050485200424C4D00424C48
:10013000550050454D0050454E004D494E004D4133
:100140004A004348520043203100422030004262BE
:1001500030004120300041623000472030004762CB
:1001600030004620300045203000456230004420F9
:1001700030004462300043203000000000002400C2
:1001800027002A0000000000250028002B001A018B
:10019000160112010E010A0106010201FE00FA0019
:1001A000F600F200EE00EA0042013E013A0136019B
:1001B00032012E012A01260122011E010000000049
:1001C0002300260029000404040404040404020299
:1001D00002020202030303030303010204081020C6
:1001E00040800102040810200102040810200000D1
:1001F00000080002010000030407000000000000E6
:100200000000760172016E016A01660162015E0101
:100210005A01560152014E014A014601991F11240B
:100220001FBECFEFD8E0DEBFCDBF12E0A0E0B1E04F
:10023000E4E7FAE502C005900D92A837B107D9F7B7
:1002400026E0A8E7B2E001C01D92AA38B207E1F7A4
:1002500011E0CFE0D1E004C02197FE010E94C02A46
:10026000CE30D107C9F70E9420200C94382D0C9471
:100270000000DC018C91EBEFF3E0808311968C9110
:100280001197818312968C91828381E08093FA0387
:1002900008952F923F924F925F926F927F928F922A
:1002A0009F92AF92BF92CF92DF92EF92FF920F9305
:1002B0001F93CF93DF936B017C0120E030E040EC93
:1002C00052E40E94AD2C18160CF493C020E030E0EC
:1002D000A901C701B6010E944E2B87FF03C0C12CA4
:1002E000D12C760120E030E040E451E4C701B601B2
:1002F0000E94532B0E94C52B4B018B01C701B601F5
:100300000E94C52BCB016CE070E00E94AC2A21E07A
:1003100030E01816190614F030E020E0280D391DE1
:10032000F401EE0FFF1FDF01A25EBD4FEB5CFE4F3D
:100330006D917C9180819181680F791FC901880F2F
:10034000991FFC01E25EFD4F208031808B5C9E4F47
:10035000FC01C081D18102171307B9F190E080E060
:100360000E94FB2B2B013C01B401990C880B990BCB
:100370000E94FD2B20E030E040E451E40E94B22CCA
:100380009B01AC01C701B6010E94E12A6B017C010F
:10039000C20DD31DBE0190E080E00E94FB2BA301A3
:1003A00092010E94E12A9B01AC01C701B6010E94A3
:1003B000B22C20E030E040E451E40E94532BA30132
:1003C00092010E94E22A0E94CC2BCB01DF91CF91B7
:1003D0001F910F91FF90EF90DF90CF90BF90AF9063
:1003E0009F908F907F906F905F904F903F902F9055
:1003F0000895C12CD12C50ECE52E52E4F52E72CF8D
:100400008091A8039091AB03992321F08E7F809374
:10041000A80308958160FBCF0F931F93CF93DF93C1
:100420009C0180913301909134018217930709F464
:1004300063C03093340120933301890137FF04C036
:1004400000271127021B130BCAE0D0E0C801BE0130
:100450000E94AC2AFC019093A5038093A403CB01D6
:10046000BE010E94AC2A9093A3038093A20385E26D
:1004700090E037FD0FC0C9018D599F4F873C910512
:10048000C0F1C80164E670E00E94AC2ACB01BE0155
:100490000E94AC2A9093A1038093A003275F3F4F53
:1004A0002331310530F484E290E09093A3038093EC
:1004B000A203A091A003B091A103AA50BE4F8C91BA
:1004C00080958093AA03A091A203B091A303AA50A0
:1004D000BE4F8C9180958093A903EA50FE4F808196
:1004E00080958093A803DF91CF911F910F910C9479
:1004F000000284E290E0CECFDF91CF911F910F9167
:1005000008950F931F93CF93DF9327EE33E030933B
:100510003401209333018C01E0EAF3E0ABEAB3E06D
:1005200044E250E06BE070E0E80129918E01223650
:10053000A1F471836083819191918A509E4FEC0167
:10054000988190959E93D3E0A83ABD0769F7DF9113
:10055000CF911F910F910C940002203219F4518316
:100560004083E9CF213444F0022E000C330B275393
:10057000310931832083DFCF2033ECF2022E000CCF
:10058000330B20533109F5CFCF93DF9300D000D048
:10059000CDB7DEB78091E9038F37E1F48091F603A0
:1005A0009091F7030297B0F41C821B828091FB03A9
:1005B00089838091FC038A838091FD038B83CE0124
:1005C00001960E9481020F900F900F900F90DF9183
:1005D000CF9108958091F8039091F9030E940C0245
:1005E000F2CF8CBD9DBD0895CF92DF92EF92FF9226
:1005F000809182038823D9F1809155068430B9F522
:100600008091560624E0829FC0011124909332010C
:10061000809331016091310170913201072E000CFD
:10062000880B990B0E94FD2B20E030E048EC52E44F
:100630000E94532B6B017C0160914B0470914C0420
:10064000072E000C880B990B0E94FD2B9B01AC011F
:10065000C701B6010E94B22C0E94C52B7093810382
:1006600060938003FF90EF90DF90CF90089580918A
:10067000500690E0CBCFCF92DF92EF92FF92609145
:100680004B0470914C04072E000C880B990B0E94B0
:10069000FD2B6B017C016091560670E090E080E0DC
:1006A0000E94FB2B9B01AC01C701B6010E94B22C3A
:1006B00020E030E048EC52E40E94532B0E94CC2B07
:1006C00070937F0360937E03FF90EF90DF90CF9055
:1006D0000895CF92DF92EF92FF92CF93DF93C09174
:1006E0004B04D0914C046091540670E090E080E09F
:1006F0000E94FB2B6B017C01BE010D2E000C880BB0
:10070000990B0E94FD2B9B01AC01C701B6010E9411
:10071000B22C20E030E048E452E40E94532B6B01FD
:100720007C01C0927A03D0927B03E0927C03F0922A
:100730007D03BE01660F771F072E000C880B990BF7
:100740000E94FD2BA70196010E94E12A6093760387
:10075000709377038093780390937903DF91CF911F
:10076000FF90EF90DF90CF900895FC018081811180
:1007700002C067FD05C0680F261718F4208380812A
:100780000895641710F06083FACF81E08083F7CF7B
:10079000CF93DF93E0E5F4E080ED94E0C0E5D5E0B1
:1007A00060ED75E020E530E0119217AEDC012D938D
:1007B0003D93CD0119921FAEDB011D92BD01DF9665
:1007C0001C92B4E0E039FB0779F782E3809350068E
:1007D00090E19093510691E0909352061092530647
:1007E000809354061092550684E08093560688E163
:1007F000809358061092590610925A06DF91CF91B5
:100800000895833081F028F4813099F08230A9F086
:1008100008958730A9F08830C9F08430B1F4809110
:1008200080008F7D03C0809180008F77809380004F
:10083000089584B58F7784BD089584B58F7DFBCFEF
:100840008091B0008F778093B00008958091B000C0
:100850008F7DF9CFCF93DF938FEF80931B01809330
:1008600030011092DE0281E0809318011092E402C0
:100870001092E3028091DD0281110EC0E1EFF1E000
:100880008491EDEDF1E0D491E9ECF1E0C491C11176
:1008900006C081E08093DD02DF91CF910895811140
:1008A0000E940104EC2FF0E0EE0FFF1FE454FE4F16
:1008B000A591B491EC91ED2361F3EECF1F93CF930B
:1008C000DF93282F30E0F901E251FE4F8491F901C6
:1008D000E652FE4FD491F901EA53FE4FC491CC2366
:1008E000A9F0162F81110E940104EC2FF0E0EE0F09
:1008F000FF1FEC57FE4FA591B4918FB7F894EC9180
:10090000111108C0D095DE23DC938FBFDF91CF910A
:100910001F910895DE2BF8CFCF93DF9390E0FC0179
:10092000E652FE4F24918A539E4FFC018491882306
:10093000C9F090E0880F991FFC01E658FE4FA59181
:10094000B491FC01EC57FE4FC591D49161110DC0DB
:100950009FB7F8948C91209582238C9388812823CB
:1009600028839FBFDF91CF910895623051F49FB7E4
:10097000F8943C91822F809583238C93E8812E2BD1
:10098000EFCF8FB7F894EC912E2B2C938FBFEACF3B
:100990003FB7F8948091BD029091BE02A091BF0232
:1009A000B091C00226B5A89B05C02F3F19F0019653
:1009B000A11DB11D3FBFBA2FA92F982F8827BC01B9
:1009C000CD01620F711D811D911D42E0660F771FE1
:1009D000881F991F4A95D1F708958F929F92AF92E1
:1009E000BF92CF92DF92EF92FF924B015C010E9487
:1009F000C8046B017C010E94C8046C197D098E0932
:100A00009F09683E734081059105A8F321E0821A91
:100A10009108A108B10888EEC80E83E0D81EE11C39
:100A2000F11C81149104A104B10429F7FF90EF9007
:100A3000DF90CF90BF90AF909F908F90089581E00E
:100A40008093DD0208950895FC0180818F3119F4AF
:100A50009181993879F1228190EF920F903160F471
:100A600061E070E080E090E004C0660F771F881FAF
:100A7000991F2A95D2F7089590EE920F963018F4A8
:100A80002650330BEDCF811109C0818181110DC03A
:100A900021110BC060E070E0CB0108958F3F29F475
:100AA00081818F3F11F42F3FA9F360E070E080E176
:100AB00090E0089560E070E080E091E0089508958E
:100AC0000CB405FC0DC09EBD00000DB407FEFDCFAB
:100AD0009EB58EBD00000DB407FEFDCF8EB5089506
:100AE0008EBD00000DB407FEFDCF8EB59EBD00008B
:100AF0000DB407FEFDCF9EB50895CF93CFB7F89400
:100B000080918F02811127C0E0EDF1E08491E4EE45
:100B1000F1E09491E82FF0E0EE0FFF1FE658FE4F52
:100B2000A591B491EC91E92321F461E08AE00E945F
:100B30005E0461E08AE00E948C048CB580618CBD0B
:100B40008CB580648CBD61E08DE00E948C0461E016
:100B50008BE00E948C0480918F028F5F80938F02C4
:100B6000CFBFCF910895CF936093820380913001DE
:100B700080938E0280915506843019F4CF910C94A5
:100B8000F402853041F4C62F80E00E945E04C093D9
:100B9000B102CF910895863019F41092B202F9CFC4
:100BA0008B30B9F72091510630E0E0E5F4E090E0B9
:100BB00080E0AF01405554404217530774F4DF0101
:100BC000A05CBE4F4C91442331F0DC01A458BD4FD2
:100BD00040814C9301963196ECCF90938D02809397
:100BE0008C02D7CFE0915506ED3008F04BC0F0E015
:100BF000E450FA4F0C94C02A090631060C06170679
:100C000022063106090638063A0646065A065A06EC
:100C10005A0620E141E027C028E040E086E596E062
:100C20000E94B503809156068450990B089520E3E5
:100C300040E086E596E00E94B50380915606885113
:100C4000990B089524E641E086E596E00E94B503FD
:100C50000E94F4028091560624E0829FC001112474
:100C6000089521E040E086E596E00E94B5030AC0C1
:100C700022E3D0CF24E641E086E596E00E94B5036A
:100C80000E943B038091560690E0089528E041E0E1
:100C900086E596E00E94B5036091560670E080916B
:100CA0004B0490914C040E94AC2A7093B002609364
:100CB000AF02E8CF24E1AECF80915306860F972F85
:100CC000911D97FF02C090E080E08A30910514F0FA
:100CD00089E090E080935306FC01EE0FFF1FEA5677
:100CE000FE4F60817181A6ECB3E030E020E0FB01B3
:100CF000E20FF31FE49141E0E11101C040E04D93A8
:100D00002F5F3F4F2D30310591F70895CF93DF933B
:100D1000C0914A01C60FD72FD11DC431D10514F49B
:100D2000C4E1D0E0CB3FD10514F0CAEFD0E02C2FC6
:100D3000C0934A0188E99AE3BE010E94AC2A7093ED
:100D40004E0460934D048091E502882321F0709356
:100D50004C0460934B04209357060E9469036091F2
:100D6000560670E080914B0490914C040E94AC2A8E
:100D70007093B0026093AF020E943B03CE01DF91FB
:100D8000CF9108958EBD00000DB407FEFDCF8EB546
:100D90000895CF93DF938631F8F4C82FD0916F0672
:100DA000DD0FDE70D06460E080916E060E945E040C
:100DB0008D2F0E94C2068C2F0E94C206EC2FF0E0FD
:100DC000E459F94F84810E94C20661E080916E0669
:100DD000DF91CF910C945E04DF91CF910895982F0D
:100DE00074E18CE0E0E0983020F0985075E18DE0FF
:100DF000E1E021E030E0092E01C0220F0A94EAF779
:100E0000F0E0E459F94F448150E002C05595479510
:100E10009A95E2F740FD0AC0E72FF0E0E459F94F58
:100E20009481662369F0292B24830DC0E82FF0E01C
:100E3000E459F94F9481662349F0292B248304C097
:100E4000209592239483872F0C94C9062095922392
:100E50009483FACF1F93CF93DF93282F1CE080E079
:100E6000283018F028501DE081E0E82FF0E0E45928
:100E7000F94F9481C1E0D0E001C0CC0F2A95EAF788
:100E8000623041F0C0959C239483DF91CF911F91F4
:100E90000C94C9069C2B94830E94C906E12FF0E0B4
:100EA000E459F94F8481C82BC483812FEECF0F936F
:100EB0001F93CF93DF93D82F0CE616E0F801C38180
:100EC000CC0FCE70C16460E082810E945E048C2FE2
:100ED0000E94C2068D2F0E94C2068FEF0E94C2069A
:100EE000ED2FF0E0E459F94F848361E0F80182814D
:100EF000DF91CF911F910F910C945E04CF93DF93FC
:100F0000EB016115704110F0CFEFDFE09CB59F7DE4
:100F10009CBD599887958827879580618D2B0E9465
:100F2000C2068C2F0E94C206599ADF91CF91089574
:100F30000F931F93CF9380E591E00E94F1020091FF
:100F4000C3021091C402F8019281C091C2028C2F99
:100F50008095892382838091C60281FF12C080E739
:100F60000E94C20680E00E94C206F8019281C92B4D
:100F7000C28387FFE0CF1092C502CF911F910F91DE
:100F8000089585E00E94C20680E00E94C206F80132
:100F90009281C92BC28380FDCECFEDCFFF920F93FC
:100FA0001F93CF93DF93EC018091C50281110E94C2
:100FB000980780E591E00E94F1020091C302109130
:100FC000C402F8019281F090C2028F2D809589238E
:100FD00082838FE90E94C20680E00E94C206888355
:100FE00080E00E94C206898380E00E94C2068A8354
:100FF0008881813041F480E00E94C2068B8380E0CA
:101000000E94C2068C83F8018281F82AF282DF9165
:10101000CF911F910F91FF9008950F931F93EFB7FA
:10102000F8940091B9021091BA022091BB0230915C
:10103000BC02EFBF041B150B260B370BFC01008312
:101040001183228333831F910F9108950F931F9370
:10105000CF93DF938B01EA0180939F0340E050E040
:10106000BA0183E696E00E940D0810939E03009358
:101070009D03D0939C03C0939B03DF91CF911F915D
:101080000F910895E0919903F0919A03E857FC4F6E
:10109000808191E08927808340E050E0BA018BE5B0
:1010A00096E00C940D080F931F93FC012FB7F89452
:1010B0006091B9027091BA028091BB029091BC021A
:1010C0002FBF0081118122813381601B710B820B44
:1010D000930B1F910F910895CF93DF932091C40339
:1010E000222309F446C0EC0187E696E00E945308EB
:1010F0006A3071058105910540F48091C203909199
:10110000C303288128171906A1F18091C00390918B
:10111000C1030897F0F42091BE033091BF032F5F05
:101120003F4F2770332788819981F901EE0FFF1F08
:10113000E455FC4F918380833093BF032093BE031B
:101140008091C0039091C10301969093C103809355
:10115000C0038881998199279093C3038093C20328
:1011600040E050E0BA0187E696E0DF91CF910C9421
:101170000D08DF91CF910895CF92DF92EF92FF9209
:101180000F931F93CF93DF9300D0CDB7DEB78CB50D
:101190008F7D8CBD809141049091420401968430F2
:1011A00091050CF0C0C0909342048093410480915B
:1011B00041048C5F803118F460E00E94EF0682E108
:1011C0000E94570783E10E94570780918206909101
:1011D00083069093440480934304F12CE12C01E0B6
:1011E00010E0E0914104F0914204EE0FFF1FEE0F7A
:1011F000FF1FEE0DFF1DEE0FFF1FE150FC4F408162
:10120000518120914304309144042F703327C80149
:101210000E2C02C0880F991F0A94E2F72823392365
:1012200030934604209345040E2C02C03695279532
:101230000A94E2F781E0232B09F080E0FA01E15003
:10124000FC4F90A1891761F080A390E0982F882728
:10125000842B952B9A838983CE0101960E946C087A
:101260008FEFE81AF80AE4E0EE16F10409F0B9CFBE
:10127000809141048C5F803118F461E00E94EF0698
:10128000809143049091440480959095892F9927EB
:101290008F77992790934604809345046FEFC62E6D
:1012A00063E0D62E10E000E0EE24E394F12C809170
:1012B0004504909146049701002E02C0220F331F6F
:1012C0000A94E2F72823392391E0232B09F490E0D4
:1012D000F60182A99817A1F092ABF801E05DFD4FED
:1012E000208130E0285F3F4F892F90E0982F88279A
:1012F000822B932B9A838983CE0101960E946C08DE
:101300000F5F1F4FFFEFCF1ADF0A0730110579F685
:101310000F900F90DF91CF911F910F91FF90EF9061
:10132000DF90CF90089510924204109241043FCF75
:10133000CF93DF9300D000D0CDB7DEB7209130013E
:10134000422F220F550B9A01281B390B37FF07C07C
:1013500020915106240F352F311D281B390B809108
:101360004B0490914C04289FA001299F500D389F59
:10137000500D1124052E000C660B770B809147044D
:1013800090914804A0914904B0914A04841B950BA4
:10139000A60BB70B89839A83AB83BC83CE010196DE
:1013A0000E945308CB010F900F900F900F90DF9188
:1013B000CF9108958F929F92AF92BF92CF92DF927A
:1013C000EF92FF92CF93DF9340918203442309F47D
:1013D00071C080915506863009F06CC08091B202D0
:1013E00081115DC080918E0290E00E949809EC010D
:1013F0002091560680914B0490914C04289FB00197
:10140000299F700D1124072E000C880B990B0E9448
:10141000FD2B6B017C0160919D0270919E02072E55
:10142000000C880B990B0E94FD2B4B015C01BE0147
:10143000DD0F880B990B0E94FD2B9B01AC01C701AE
:10144000B6010E94E12A9B01AC01C501B4010E94D2
:10145000B22CA70196010E94532B6B017C0120E066
:1014600030E040E85FE30E944E2B881F8827881FEA
:101470008093B202C701B6010E944901BC0180E01D
:101480000E947E0720E030E040E85FE3C701B6013C
:101490000E944E2B87FF03C058981092B102DF9133
:1014A000CF91FF90EF90DF90CF90BF90AF909F9043
:1014B0008F90089580914701082E000C990B9C0194
:1014C000205B3B4FF901E05CFE4F5081552331F02A
:1014D00020583E4FF9012081211106C04423F9F222
:1014E000209155062430D9F60E949809C0918003B6
:1014F000D09181038C179D070CF041C01092B2026D
:10150000AE01481B590B20919B0230919C02429FD7
:10151000B001439F700D529F700D112440919D02A8
:1015200050919E02849F9001859F300D949F300DB5
:101530001124620F731F072E000C880B990B0E9459
:10154000FD2B6B017C01BE01DD0F880B990B0E9406
:10155000FD2B9B01AC01C701B6010E94532B0E94D9
:101560004901BC0180E0DF91CF91FF90EF90DF90C7
:10157000CF90BF90AF909F908F900C947E078091FA
:10158000B20281118CCF60919D0270919E02072E54
:10159000000C880B990B0E94FD2B0E944901BC0195
:1015A00080E00E947E0781E08093B20278CF8F9224
:1015B0009F92AF92BF92CF92DF92EF92FF927C0107
:1015C000072E000C880B990B0E94FD2B20E030E0C9
:1015D00040E450E40E94E22A20E030E040E451E49C
:1015E0000E94B22C4B015C01B701FF0C880B990BD8
:1015F0000E94FD2B9B01AC01C501B4010E94E22AAF
:101600006B017C0160915806062E000C770B880B4D
:10161000990B0E94FD2B9B01AC01C701B6010E94F2
:10162000E22A20E030E040EC51E40E94E12A6B0124
:101630007C0120E030E0A9010E94AD2C18160CF0CE
:1016400041C020E030E04EEF52E4C701B6010E94F5
:101650004E2B87FF3AC0C701B6010E94C52BCB01B4
:101660006CE070E00E94AC2AFC01EE0FFF1FEE5F01
:10167000FD4F659174918CEE93E00E94C52920E0A6
:1016800030E04EEF52E4C701B6010E944E2B6AE0F3
:1016900087FF0AC020E030E040E451E4C701B60112
:1016A0000E94532B0E94C52B605D6093EE038CEE6D
:1016B00093E0FF90EF90DF90CF90BF90AF909F901E
:1016C0008F90089590E080E0CBCF8FE790E0C8CF77
:1016D0009093F9038093F8038091E9038F37D9F44D
:1016E0008091F6039091F7030297A8F4E091E70345
:1016F000F091E803E05BFB4FDF01A05CBF4F6C9112
:10170000062E000C770B8081082E000C990B0E948E
:10171000D70A0E94390181E08093FA0308958091ED
:10172000F6039091F70381309105A9F01CF4892B01
:1017300039F0089582309105A9F00397F9F00895E2
:10174000E091E703F091E803E05BFB4F8081082E16
:10175000000C990B11C0E091E703F091E803E0570A
:10176000FB4FF4CFE091E703F091E803EE0FFF1F8A
:10177000E053FB4F808191810C94680BE091E7036B
:10178000F091E803E05BFA4FE1CFCF92DF92EF9266
:10179000FF92CF93DF93282F30E0220F331FF90100
:1017A000E55CFD4F90819E3008F09E5040914801CD
:1017B00060E4469FA00111249770942B90937C00C5
:1017C00090917A00906490937A0090917A0096FDBF
:1017D000FCCF9091780040917900542F492FF90166
:1017E000E152FC4F518340831092FA03F901E95210
:1017F000FC4F60817181FA01E61BF70BBF01F7FF17
:1018000003C0719561957109E09149010E2E000C9C
:10181000FF0BE617F707B4F491E09093D603295233
:101820003C4FF901518340839091D503992351F0A6
:10183000813009F466C068F0823009F496C08330C4
:1018400009F4C9C0DF91CF91FF90EF90DF90CF9066
:1018500008956091DF037091E0031092F7031092F6
:10186000F603072E000C880B990B0E94FD2B26E631
:1018700036E648E252E40E94532B2AE939E941E472
:1018800051E40E94E12A0E94C52B6B019B018091CB
:10189000D4038823C1F0C6010E94680BE091E703DE
:1018A000F091E803E057FB4F6081062E000C770BA8
:1018B000C6010E94D70ADF91CF91FF90EF90DF9091
:1018C000CF900C943901C601D7FC0C968A539C4FDB
:1018D000FC018081882309F4B5CF8091D303E09186
:1018E0004701811102C0E091E703F0E0E05BFB4FAC
:1018F0008081082E000C990BC0822817390759F6F1
:10190000A1CF8091E1039091E20321E030E0309398
:10191000F7032093F60368E770E00E94AC2AEB011E
:1019200024978091D403882379F0CE010E94680B1C
:10193000E091E703F091E803E05BFB4F8081BE019B
:10194000082E000C990BB5CF9C2F8091D303E0910A
:101950004701811102C0E091E703F0E0E057FB4F3F
:101960008081C0839813E1CF6DCFA091E303B09144
:10197000E40382E090E09093F7038093F6039D01E7
:101980000E94C62A27E33AE040E050E00E94172A6E
:101990008091D403882349F0C901DF91CF91FF9052
:1019A000EF90DF90CF900C94680BB9018091D30336
:1019B000E0914701811102C0E091E703F0E0EE0FF2
:1019C000FF1FE053FB4F8081918131832083681793
:1019D000790711F737CF6091E5037091E60383E053
:1019E00090E09093F7038093F603072E000C880B8A
:1019F000990B0E94FD2B24E13EEA43E251E40E9450
:101A0000532B0E94C52BCB012091D403222311F02C
:101A1000CB01C3CF2091D303E0914701211102C034
:101A2000E091E703F0E0E05BFA4F2081022E000C2A
:101A3000330B60838217930759F704CF8091C50356
:101A40008F5F8430A8F48093C5038091C503E82F8D
:101A5000F0E0E95CFD4F90812091F6033091F703AF
:101A60009217130641F494E0909349010C94C50B2E
:101A70001092C503EACF9AE0F7CF0F931F93CF934D
:101A8000DF9305E311E0D0E0C0E0CE010E94012A1F
:101A90008456990B9C0197FF04C022273327281BEB
:101AA000390BF801243631056CF49183808321963B
:101AB0000E5F1F4FC930D10541F7DF91CF911F91C4
:101AC0000F91089511821082F2CF8093870320E155
:101AD000829FC0011124FC01E057FA4F20E1A8E8E1
:101AE000B3E001900D922A95E1F72091E703309140
:101AF000E8032817390724F04096821793073CF42F
:101B000080E190E090939A038093990308952F7059
:101B1000332730939A0320939903089510928403F6
:101B2000E8E8F3E0119283E0E839F807D9F780910B
:101B300083030E94650D0E948F0B0C94C4021092C7
:101B4000DC02809184039FEF980F943070F4813011
:101B500009F458980E948E0D41E050E064E670E070
:101B600081E00E94260881E008951092DB0241E0A6
:101B700050E061E070E080E00E94260880E0089577
:101B8000CF93DF9300D01F92CDB7DEB74AE0BE01FE
:101B90006F5F7F4F0E94CC29ECE1F1E084E1DF012F
:101BA0001D928A95E9F7BE016F5F7F4FCF010E94BA
:101BB000312D63E472E08CE191E00E94262D8CE1EE
:101BC00091E00F900F900F90DF91CF9108951F93A8
:101BD000CF93DF93EC01162F0E94012A181739F0DA
:101BE000612FCE01DF91CF911F910C94092ADF91D3
:101BF000CF911F910895CF93DF93EC018F30910522
:101C0000A9F488E492E00E94810243E050E064E697
:101C100070E081E00E94260860E084E190E00E948C
:101C2000E70D1092E903DF91CF9108958E30910571
:101C3000A1F48CE492E00E94810243E050E064E66B
:101C400070E081E00E9426086FE784E190E00E9446
:101C5000E70D8FE78093E903E6CF893091051CF704
:101C60008093D80290939A038093990380E1E8E0EF
:101C7000F1E0A8E8B3E001900D928A95E1F7FE014A
:101C8000EE0FFF1FEB5CFE4F808191810E940C02E2
:101C90008CE08C9FB0018D9F700D1124072E000CDD
:101CA000880B990B0E94FD2B0E944901BC0180E02A
:101CB000DF91CF910C947E07AF92BF92CF92DF92CB
:101CC000EF92FF920F931F93CF93DF9300D000D03A
:101CD0001F92CDB7DEB78091C50281110E9498078F
:101CE000CE0101960E94CE078981803209F067C03B
:101CF0008B8190EE980F933008F061C094E08132B0
:101D000009F092E02091C602022F10E036E015950E
:101D100007953A95E1F72F73D22E2093C602091743
:101D2000F0F528E0B22E823211F092E0B92E80E573
:101D300091E00E94F102E090C302F090C402F7012A
:101D40008281C090C202AC2CA0948A21828386E05A
:101D50000E94C206F70182818C29828382818A21B6
:101D6000828384EC0E94C20680E0B09E902D1124F4
:101D70000E94600590E080E00E946005F70182818A
:101D8000C82AC2820F5F1F4F86E0000F111F8A957D
:101D9000E1F70D290093C60283E08093C5020F90FE
:101DA0000F900F900F900F90DF91CF911F910F9197
:101DB000FF90EF90DF90CF90BF90AF90089580E5B7
:101DC00091E00E94F1020091C3021091C402F80157
:101DD0008281F090C202EF2CE0948E21828386E013
:101DE0000E94C206F80182818F29828382818E211E
:101DF000828387EC0E94C206F8018281F82AF2826F
:101E0000CBCF0F931F93CF93DF938091C5028111A6
:101E100006C081E0DF91CF911F910F91089580E579
:101E200091E00E94F1020091C3021091C402F801F6
:101E30009281C091C2028C2F809589238283D09198
:101E4000C602D1FF13C080E70E94C20680E00E9454
:101E5000C206F8019281C92BC28387FF13C010927A
:101E6000C502D07CB1F20E945C0E0CC085E00E94DD
:101E7000C20680E00E94C206F8019281C92BC2838B
:101E800080FFEDCF80E0C6CF2F923F924F925F92BE
:101E90006F927F928F929F92AF92BF92CF92DF927A
:101EA000EF92FF920F931F93CF93DF93CDB7DEB7DF
:101EB00028970FB6F894DEBF0FBECDBF69837A8333
:101EC0008B839C831A01480159018091C5028111BD
:101ED0000E94980780E591E00E94F1020091C30200
:101EE0001091C402D80112968C91B091C202BD83A8
:101EF000B095BE838B23F801828386E00E94C206E0
:101F0000D80112968C91BD818B2BF8018283C12C54
:101F1000D12C7601D394F981CF1AD108E108F108C8
:101F20008C149D04AE04BF0410F475016401D80143
:101F300012968C91BE81B823F801B28389819A816F
:101F4000AB81BC812D01662477248091C60280FF7D
:101F50005EC082E00E94C206C2010E9460058981C3
:101F60009A810E94600589819A81AB81BC818C0D28
:101F70009D1DAE1DBF1D89839A83AB83BC838C18C6
:101F80009D08AE08BF0838862F8226013701AF8131
:101F9000B8858D91B887AF830E94C206B1E04B1A15
:101FA00051086108710899F7E1E0CE1AD108E108FB
:101FB000F108FFEFCF1ADF0A2C0C3D1CD801129656
:101FC0008C91BD818B2BF8018283F4E0F093C502E4
:101FD00081149104A104B10409F077CF28960FB6BB
:101FE000F894DEBF0FBECDBFDF91CF911F910F914F
:101FF000FF90EF90DF90CF90BF90AF909F908F9029
:102000007F906F905F904F903F902F900895552450
:10201000C2019260A2CF8F929F92AF92BF92CF9255
:10202000DF92EF92FF920F931F93FC016A017B01F5
:102030008091700390917103A0917203B09173032A
:1020400000916C0310916D0320916E0330916F032A
:102050004C015D018C0C9D1CAE1CBF1C08151905A4
:102060002A053B0570F4C12CD12C7601801791070D
:10207000A207B30768F568017901C81AD90AEA0A04
:10208000FB0A009168031091690320916A03309163
:102090006B03BC01CD01600F711F821F931F97015D
:1020A0008601AF010E94440F8091700390917103EB
:1020B000A0917203B09173038C0D9D1DAE1DBF1DC9
:1020C0008093700390937103A0937203B093730392
:1020D000C701B6011F910F91FF90EF90DF90CF9055
:1020E000BF90AF909F908F9008952F923F924F9204
:1020F0005F926F927F928F929F92AF92BF92CF9298
:10210000DF92EF92FF920F931F93CF93DF93CDB7A0
:10211000DEB728970FB6F894DEBF0FBECDBF6B01B8
:102120007C011A0148015901A80170E060E0C10179
:102130000E941F2D0091C60280E591E00E94F102ED
:102140001091C502112339F12091C3023091C402CC
:102150003A8329837090C202672C6094D901129649
:102160008C911297862112968C93B02FB2705B2EB1
:1021700001FF71C080E70E94C20680E00E94C20693
:1021800087FD10E0E981FA8182818729828311111C
:102190006BC01092C502B02FB870BD83E02FE17004
:1021A000EE83FD81FF2309F4B3C0D701C601880D7A
:1021B000991DAA1DBB1D0197A109B1098C259D255B
:1021C000AE25BF2588279927AA27BE7F892B8A2B72
:1021D0008B2B09F49DC0D701C601B170412C512C45
:1021E000612C22E0722E481A590A6A0A7B0AE09191
:1021F000C302F091C40292818091C202809589232A
:102200008283C701AA27BB2789839A83AB83BC83B8
:102210009E81992309F47FC083E00E94C2068981D0
:102220009A810E946005C6010E946005C201009764
:1022300009F47FC0D1012C912EBDF10192012150F2
:10224000310909F46DC051810DB407FEFDCF4EB5C3
:102250005EBD4193F4CF85E00E94C20680E00E94FB
:10226000C20680FF8ECF8ECF133008F049C0A981FF
:10227000BA8112968C911297862112968C9386E0E1
:102280000E94C206E981FA8182818729828302FF46
:1022900003C085E8113009F085E7A981BA8112965B
:1022A0009C911297962112969C930E94C206E981F6
:1022B000FA818281872982835520A1F08281682258
:1022C000628280E70E94C20680E00E94C20687FF09
:1022D000FBCFA981BA8112968C911297782A129617
:1022E0007C9259CFE981FA8182816822628285E0FD
:1022F0000E94C20680E00E94C20680FDFBCFE9CFAB
:102300000E94980780E591E00E94F10210E043CF1F
:10231000240135016CCF89819A819927936081CFFF
:10232000FC013197E20DF31D0DB407FEFDCF2EB574
:102330002083E091C302F091C402F887EF832281E9
:10234000F091C202F9832F2BAF81B88512962C939E
:102350001297280E391EC40CD51CE61CF71C8418D5
:102360009508A608B70809F01CCF112351F1129661
:102370008C911297FF2EF0948F2112968C9386E009
:102380000E94C206EF81F8858281F9818F2BAF818F
:10239000B88512968C9302FF03C08AE8113009F0C9
:1023A0008AE7EF81F88592819F2192830E94C2067D
:1023B000AF81B88512968C9112977980782A1296FF
:1023C0007C9228960FB6F894DEBF0FBECDBFDF918A
:1023D000CF911F910F91FF90EF90DF90CF90BF9022
:1023E000AF909F908F907F906F905F904F903F90B5
:1023F0002F9008958F929F92AF92BF92CF92DF92CB
:10240000EF92FF920F931F93FC016A017B01809171
:10241000700390917103A0917203B09173030091C6
:102420006C0310916D0320916E0330916F034C018A
:102430005D018C0C9D1CAE1CBF1C081519052A05DE
:102440003B0570F4C12CD12C760180179107A207AF
:10245000B30768F568017901C81AD90AEA0AFB0AC4
:10246000009168031091690320916A0330916B0316
:10247000BC01CD01600F711F821F931F9701860160
:10248000AF010E9475108091700390917103A0912B
:102490007203B09173038C0D9D1DAE1DBF1D809303
:1024A000700390937103A0937203B0937303C701F9
:1024B000B6011F910F91FF90EF90DF90CF90BF90EA
:1024C000AF909F908F9008950F931F93CF93DF93BA
:1024D000CDB7DEB728970FB6F894DEBF0FBECDBFDD
:1024E00008E010E020E030E0AE014F5F5F4F60E0B9
:1024F00070E0CB010E94751089819A81AB81BC810B
:102500008C3425E5920726E9A2072AEFB20729F4C1
:102510006D817E818F81988508C08F3F9F4FAF4F1F
:10252000BF4F71F060E070E0CB0128960FB6F894D1
:10253000DEBF0FBECDBFDF91CF911F910F910895E8
:102540008CE495E5A6E9BAEF89839A83AB83BC83D3
:1025500088E592E0A6EFB8E18D839E83AF83B887CC
:1025600008E010E020E030E0AE014F5F5F4F60E038
:1025700070E0CB010E94440F0E94010F8823E1F319
:1025800008E010E020E030E0AE014F5F5F4F60E018
:1025900070E0CB010E94751089819A81AB81BC816A
:1025A0008C349545A649BA4F09F0BCCFB1CF2F92D4
:1025B0003F924F925F926F927F928F929F92AF92D3
:1025C000BF92CF92DF92EF92FF920F931F93CF9320
:1025D000DF93CDB7DEB7C254D1090FB6F894DEBF92
:1025E0000FBECDBF9AAB89AB8EE0A9A9BAA91D9247
:1025F0008A95E9F70E9464126115710581059105BC
:1026000009F428C19B01AC01442755272BAB3CABF7
:102610004DAB5EABECE1F1E065EC7DE98CE191E87E
:102620002191222381F0022E000C330B440B550B19
:10263000262737274827592763E971E080E091E092
:102640000E947A2AEDCF2EEF3FEF40E050E00E944B
:10265000492A6F5F7F4F8F4F9F4F7EAF6DAFA3E0D3
:10266000B0E02BA93CA94DA95EA90E94362A69AF0A
:102670007AAF8BAF9CAFC12CD12C7601DA01C901A6
:102680000496A11DB11D23968CAF9DAFAEAFBFAF19
:1026900023972BA93CA94DA95EA9C216D306E4062F
:1026A000F50608F0D7C029013A014C185D086E08FC
:1026B0007F0838E0431651046104710428F0F8E003
:1026C0004F2E512C612C712CC701B6016C5F7F4FCE
:1026D0008F4F9F4F660F771F881F991F93018201AD
:1026E000000F111F221F331FAE014F5E5F4F0E946C
:1026F0007510AE014F5E5F4F58AF4FAB1DA61EA6C3
:102700001FA618AA8DA59EA5AFA5B8A9481659065B
:102710006A067B0609F481C0AFA9B8AD8D919D9181
:10272000B8AFAFABEDADFEAD8E179F0709F067C038
:1027300019A61AA61BA61CA6A5E0B0E02DA53EA5CD
:102740004FA558A92C0D3D1D4E1D5F1D0E94362A18
:1027500023962CAD3DAD4EAD5FAD2397620F731F39
:10276000841F951F660F771F881F991F0AE010E0CE
:1027700020E030E0AE014F5D5F4F0E94751089A4EC
:102780009AA4ABA4BCA432E0830E911CA11CB11C82
:1027900089AD9AADABADBCAD880E991EAA1EBB1E0D
:1027A00032E0880C991CAA1CBB1C3A95D1F74CE16D
:1027B000242E41E0342E00E110E020E030E0AE01B4
:1027C0004F5F5F4FC501B4010E94751090E1890E03
:1027D000911CA11CB11CDE0111969101205F3F4F9D
:1027E000F1014FEF241A340A80819D91891309C0A9
:1027F0008823C1F0F1012216330699F7DCCF019648
:1028000049F18DA59EA5AFA5B8A90196A11DB11D41
:102810008DA79EA7AFA7B8AB75CFC40CD51CE61C7F
:10282000F71C37CF89A19AA1ABA1BCA1E9A9FAA94C
:1028300080839183A283B3838DA19EA1AFA1B8A50C
:1028400084839583A683B7832DA53EA5C20ED31E90
:10285000D586C48689A99AA9CE5BDF4F0FB6F894B6
:10286000DEBF0FBECDBFDF91CF911F910F91FF90C3
:10287000EF90DF90CF90BF90AF909F908F907F9020
:102880006F905F904F903F902F9008950F931F93FC
:10289000CF93DF93CDB7DEB76A970FB6F894DEBF5C
:1028A0000FBECDBF0E94C00DCE010D960E94D71263
:1028B0008EE0FE013D96A8E6B3E001900D928A9568
:1028C000E1F78091680390916903A0916A03B09148
:1028D0006B03892B8A2B8B2B09F4D6C000916603DE
:1028E0001091670340E450E060E070E080E594E020
:1028F0000E94FA1140E450E060E070E080E994E06A
:102900000E94FA1140E850E060E070E086EE92E04C
:102910000E94FA1140E450E060E070E080E595E04C
:102920000E94FA1140E450E060E070E080E995E038
:102930000E94FA1140E450E060E070E080ED95E024
:102940000E94FA1148E050E060E070E0CE0101968C
:102950000E94FA1144E050E060E070E0CE01099678
:102960000E94FA1140E450E060E070E080E196E0FF
:102970000E94FA11E6EEF2E0A0EDB4E046E253E088
:10298000819190E0982F882727AD820F911D8D931C
:102990009D934E175F07A1F78981809350068A8126
:1029A000809351068B81809352068C8180935306CD
:1029B0008D81809354068E81809355068F818093FC
:1029C00056066885609357068985809358068A85E0
:1029D000809359068B8580935A068091E502811178
:1029E0000DC070E088E99AE30E94AC2A70934E040F
:1029F00060934D0470934C0460934B0470E060E06E
:102A0000C8010E9486060E94F40270E060E0C801DE
:102A10000E945C0670E060E0C8010E94F20590919F
:102A2000510620914F04921789F080911B011816CE
:102A300024F4821B890F80931B0180911B0187FF67
:102A400003C0890F80931B0190934F041092E402FE
:102A50001092E3028091590618162CF481E09091AF
:102A60005A0619160CF080E08093E2021092E102FF
:102A700081E06A960FB6F894DEBF0FBECDBFDF913E
:102A8000CF911F910F91089580E0F3CFCF93DF9303
:102A9000CDB7DEB72E970FB6F894DEBF0FBECDBF11
:102AA000CE0101960E94D71281E049815A816B8143
:102AB0007C81452B462B472B09F480E02E960FB6E0
:102AC000F894DEBF0FBECDBFDF91CF9108951F9365
:102AD000CF93DF9310915906C12F012E000CDD0B0F
:102AE0001C161D06ECF4CE010E94C00D0E94461576
:102AF0008823B1F010931A0110931901CE010E949E
:102B0000461480911A0190E00E940C0245E050E0CA
:102B100064E670E081E0DF91CF911F910C9426086C
:102B2000DF91CF911F9108958093C102882309F40A
:102B300041C08091C70281113DC0809184038230E1
:102B400009F58091190190E00E944614882391F0C4
:102B500043E050E064E670E081E00E9426081092B5
:102B600084038091190180931A011092830380E0FD
:102B70000C94650D0E94C80341E050E064E670E0EB
:102B800080E0EBCF811116C08091CB0281110C94B3
:102B9000671582E08093840380911A018093190164
:102BA00090E00E940C0250E040E06CE271E081E0B5
:102BB0000C94260808950F931F93CF93DF93BC01C5
:102BC00080918403813019F50091D80210E09801BA
:102BD000220F331FF901EB5CFE4F80819181680F5A
:102BE000791FCB018D599F4F873C910510F471835C
:102BF00060832B5C3E4FF901808191810E940C0221
:102C0000C801DF91CF911F910F910C94FB0D909112
:102C1000DC0291112BC09EEF980F923088F58091C5
:102C20001901680F49F160931901809119018436E7
:102C300018F081E080931901C0911901D0E0CE0114
:102C40000E940C02CE010E94C00D0E944615809386
:102C5000AB030E94000250E040E06CE271E081E0D2
:102C6000DF91CF911F910F910C9426088111D7CF3E
:102C700082E080938403D3CF83E680931901D5CF7C
:102C8000843009F07CC1E0910701EA30C9F48091F9
:102C9000DF029091E0020E945C06FC01EE0FFF1F34
:102CA000E855FE4F6591749181ED92E00E94C5292F
:102CB00081ED92E0DF91CF911F910F910C948102F1
:102CC000E53109F050C0C091DF02D091E0022CE064
:102CD00040E085E596E00E94B5031092C902E091BC
:102CE0005506ED30B0F4F0E0E858F94E0C94C02AE7
:102CF000A2168916A0169E1685168916A416891680
:102D0000A616A816AA16B116B11680915006809381
:102D1000560670E060E0CE010E94F205E091550693
:102D2000F0E0EE0FFF1FE257FE4F659174918CECBF
:102D300092E00E94C5298CEC92E0BCCF88E1E7CFFD
:102D400085E0E5CF84E0E3CF88E0E1CF80E5DFCF29
:102D500082E0DDCF84E08093560681E08093C90253
:102D6000D8CF8CE0F8CFE850E33108F005C1F0E0AF
:102D7000E454F94E0C94C02ADD16E416BC172C1747
:102D80005D17BC17BC178C177117BC17BC17BC1785
:102D9000BC17BC17BC17BC17BC17CF1647178091C0
:102DA000DF029091E0020E94F205EC01CE01DF917A
:102DB000CF911F910F910C940C028091DF029091A2
:102DC000E0020E948606F1CF8091510690E02091AA
:102DD000CB022223A1F16115710589F1893091059A
:102DE000ECF08D309105ECF081319105ECF08931FA
:102DF0009105ECF08197F4F086E090E01616170646
:102E0000E4F4019682519E4FFC018081809351062B
:102E1000C0915106C0934F04D0E0C8CF81E090E04C
:102E2000EDCF82E090E0EACF83E090E0E7CF84E06E
:102E300090E0E4CF85E090E0E1CF0197E3CF860F0B
:102E4000971F1816190614F081E090E0813491055F
:102E5000ECF280E490E0DACF8091DF029091E00222
:102E6000C09154066C0F711D6A30710514F46AE04C
:102E700070E06B35710514F06AE570E060935406FC
:102E800070E060E00E948606C0915406C5CF809134
:102E90005006680F711D1616170614F061E070E0F9
:102EA0006F3F710519F014F06FEF70E060935006FA
:102EB0000E94F402C0915006AFCF80915806EB01FA
:102EC000C80FD11D87FDDA95D7FF02C0D0E0C0E062
:102ED000C133D10514F0C0E3D0E0C0935806689721
:102EE00065CF8091CA02882311F070E060E0809184
:102EF0005A06EB01C80FD11D87FDDA95D7FF02C036
:102F0000D0E0C0E0C436D10514F0C3E6D0E0C093F1
:102F10005A061092CA024ACF8091CA02882311F041
:102F200070E060E080915906EB01C80FD11D87FD6C
:102F3000DA95D7FF02C0D0E0C0E0C436D10514F066
:102F4000C3E6D0E0C0935906CC2399F080915A068D
:102F500018167CF481E08093E2021092CA02CE013E
:102F60000E94C00D0E9446158093AB030E94000290
:102F70001DCF1092E202F1CFD0E0C0E017CF8091D8
:102F80001A018093190190E00E940C0281E0809365
:102F9000DC02DF91CF911F910F9108952F923F9204
:102FA0004F925F926F927F928F929F92AF92BF9259
:102FB000CF92DF92EF92FF920F931F93CF93DF9305
:102FC000CDB7DEB7C254D1090FB6F894DEBF0FBE3D
:102FD000CDBF8093C802882329F18091840381307A
:102FE000D9F51092840375E3C72E71E0D72E10E057
:102FF00000E0D6018C91B2E0CB0ED11C64E6F62E37
:10300000F80EC8010E94012AF81621F06F2DC801A0
:103010000E94092A0F5F1F4F0930110551F7589878
:103020000E948E0DCE5BDF4F0FB6F894DEBF0FBE51
:10303000CDBFDF91CF911F910F91FF90EF90DF9067
:10304000CF90BF90AF909F908F907F906F905F9048
:103050004F903F902F900895833009F07CC31091DA
:1030600019010E94010F882309F46EC3812F90E09B
:103070000E94C00D0E94461581114DC28091C6026A
:1030800085FD71C084FF78C020E030E044E050E06E
:103090002BA73CA74DA75EA70E944615811161C0D2
:1030A0000E9464126B017C01C114D104E104F1049B
:1030B00009F457C0DC01CB01AA27BB278FA798AB27
:1030C000A9ABBAAB812C912C5401D501C40108964F
:1030D000A11DB11D2FA538A949A95AA9281739073B
:1030E0004A075B0708F051C029013A0148185908FE
:1030F0006A087B08C501B4016C5F7F4F8F4F9F4FFB
:10310000660F771F881F991F93018201000F111FFF
:10311000221F331FAE014F5F5F4F0E947510FE01EB
:10312000319680E090E0DC01481659066A067B067D
:10313000B1F1219131912F3F3F4F69F5A5019401E4
:10314000280F391F4A1F5B1F2BAB3CAB4DAB5EAB4F
:103150006FA578A989A99AA926173707480759079B
:1031600068F181E014C240E050E160E070E04BA7FC
:103170005CA76DA77EA790CF60E070E081E090E053
:103180006BA77CA78DA79EA787CF58E0452E512C13
:10319000612C712CAFCF0196A11DB11DC5CF840C40
:1031A000951CA61CB71C8FA598A9A9A9BAA9881611
:1031B0009906AA06BB0608F488CFD3CFACE0B0E0EE
:1031C0002FA538A949A95AA90E94362A6BAF7CAF0E
:1031D0008DAF9EAF4B015C0198E0890E911CA11C44
:1031E000B11C2BA93CA94DA95EA9232B242B252B6F
:1031F00009F0D8C00EE0F694E794D794C7940A95E6
:10320000D1F73CEFC32233E0E322FF24B701A6014C
:10321000480D591D6A1D7B1D4FAB58AF69AF7AAF82
:103220006BA57CA58DA59EA56150710981099109A9
:103230002FA938AD49AD5AAD620F731F841F951F7A
:103240002BA53CA54DA55EA50E94492ACA01B9013E
:103250002BA53CA54DA55EA50E947A2A6B017C0199
:10326000CA01B9016150704F8F4F9F4F0E94492A88
:10327000CA01B9012BA53CA54DA55EA50E947A2ADD
:103280002B013C010CE111E0D8010D900020E9F781
:103290008D010D511140CE0101960E94CE07A7016C
:1032A0009601240D351D461D571D2BA73CA74DA784
:1032B0005EA7CE0101960E9424052BA53CA54DA535
:1032C0005EA5621773078407950708F44ACF30E0BC
:1032D00020E00F5F1F4F2F4F3F4F4CE151E0C501E2
:1032E000B4010E94440FC98ADA8AEB8AFC8A4D8AAB
:1032F0005E8A6F8A788E8BAD9CADADADBEAD881AFF
:10330000990AAA0ABB0A98E0891A9108A108B1088B
:1033100052E0B694A794979487945A95D1F7898EE2
:103320009A8EAB8EBC8EA5E0B0E02BA93CA94DA92E
:103330005EA90E94362A0FA518A929A93AA90C5FEF
:103340001F4F2F4F3F4F600F711F821F931F660F3C
:10335000771F881F991F0AE010E020E030E0AE01DF
:103360004F5E5F4F0E94440F0E94010F8823E1F3DC
:10337000ECE1F1E065EC7DE98CE191E8219122231B
:1033800009F49EC0022E000C330B440B550B26276C
:1033900037274827592763E971E080E091E00E94D0
:1033A0007A2AECCF198E1A8E1B8E1C8E7E0151E16B
:1033B000E50EF11CA5E0B0E02BA93CA94DA95EA942
:1033C0000E94362A0FA518A929A93AA90150110966
:1033D00021093048600F711F821F931F660F771FEE
:1033E000881F991F0AE010E020E030E0A7010E944A
:1033F000751009891A892B893C898D899E89AF8925
:10340000B88DB901A801480F591F6A1F7B1F4FAB28
:1034100058AF69AF7AAF898D9A8DAB8DBC8D12E0B4
:10342000880F991FAA1FBB1F1A95D1F79C01AD01E8
:10343000280D391D4A1D5B1D23962CAF3DAF4EAFA5
:103440005FAF239749015A01412C512C320100E111
:1034500010E020E030E0AE014F5F5F4FC501B401E6
:103460000E947510FE013196D301C2013FEF431A4D
:10347000530A630A730A2191211117C023968CAC59
:103480009DACAEACBFAC239744E0840E911CA11C54
:10349000B11C880D991DAA1DBB1D4C015D015CEF7F
:1034A000852253E0A522BB24BBCED301C201EE1678
:1034B000FF06E1F660E1860E911CA11CB11CC7CF8E
:1034C0002EEF3FEF40E050E00E94492A6F5F7F4FB0
:1034D0008F4F9F4F698B7A8B8B8B9C8B8BA89CA873
:1034E000ADA8BEA8A4E08A0E911CA11CB11CC50108
:1034F000B401660F771F881F991F02E010E020E0DB
:1035000030E0AE014F5E5F4F0E94440F0E94010FFA
:103510008823E1F326CECE014D960E94D7128EE08D
:10352000FE017D96A8E6B3E001900D928A95E1F741
:103530008091C60284FF3FC020E030E044E050E0CC
:103540002FA738AB49AB5AAB812C30E1932EA12C7D
:10355000B12C85FD04C08FA498A8A9A8BAA87501AC
:10356000640151E0C51AD108E108F10880916803AF
:1035700090916903A0916A03B0916B038C219D2106
:10358000AE21BF21892B8A2B8B2BF1F082E0909109
:10359000190190931A018150823008F0D7C081E060
:1035A0008093C70245E050E064E670E00E94260880
:1035B0001092840337CD40E050E061E070E04FA707
:1035C00058AB69AB7AABC0CF80916C0390916D031F
:1035D000A0916E03B0916F03C822D922EA22FB2288
:1035E000C114D104E104F10489F680916C03909137
:1035F0006D03A0916E03B0916F03C816D906EA0659
:10360000FB0620F6409068035090690360906A03BF
:1036100070906B034C0C5D1C6E1C7F1C9091C6025D
:103620008091C5029301442755272BA73CA74DA79E
:103630005EA791709BAB4FA558A969A97AA984167A
:103640009506A606B70608F041C081110E949807AA
:1036500080E591E00E94F1020091C3021091C40242
:10366000D80112968C9112973090C202232C20948C
:10367000822112968C9386E00E94C206F801828114
:1036800083298283828128222282FBA9FF23C9F019
:1036900080E20E94C2068BA59CA50E946005C20123
:1036A0000E946005D80112968C911297382A1296C2
:1036B0003C92B2E0B093C502C80CD91CEA1CFB1CBA
:1036C00094CF8BA59CA599279062E7CF81110E948A
:1036D000980780E591E00E94F1020091C3021091E9
:1036E000C402F80182813090C202232C20948221EE
:1036F000828386E00E94C206D80112968C911297AE
:10370000832912968C93129712968C9112972822E5
:1037100012962C92BBA9BB2391F088ED0E94C206A1
:103720008BA59CA50E946005C2010E946005F8015E
:103730008281382A3282F2E0F093C502BDCF8BA598
:103740009CA59927986DEECF80E021CF80E592E08F
:103750000E94810267CC8091C702811163CC83E013
:103760008093840380911A018093190190E00E9454
:103770000C0250E040E06CE271E081E00E9426081B
:1037800051CCCF92DF92EF92FF920F931F93CF9382
:10379000DF93EC0190918203E09130010E2E000C3A
:1037A000FF0BE057FA4F8081882309F436C2992332
:1037B000C9F0809155068630A9F4CE010E94DA093D
:1037C0008091B202811121C1C09147010C2E000CE1
:1037D000DD0BC057DA4F68810E945E0488818093B8
:1037E000B10213C11092B202E09147010E2E000CFB
:1037F000FF0BE05BFB4F8081282F880F330B30934A
:103800007B0220937A021092790210927802992317
:1038100051F190915506973009F000C10E94B529E9
:103820006091560670E00E94AC2A8C010E94B52976
:103830006AE070E00E94AC2A2FEF3FEF069714F485
:1038400021E030E0029FA001039F500D129F500D18
:10385000112480917A0290917B02840F951F90939E
:103860007B0280937A0280917A0290917B028D3064
:1038700091050CF4AAC123E030E0853291053CF4B7
:1038800022E030E08831910514F421E030E03093FB
:103890007902209378026CE070E00E94AC2A909349
:1038A0007B0280937A0220917A0230917B02C901D7
:1038B00037FD0C96FC01EA53FC4F4081411111C0C9
:1038C00040915306433009F08FC187579E4FFC014A
:1038D0008081280F311D87FD3A9530937B0220931C
:1038E0007A0200914701002E000C110BC801805B89
:1038F0009B4F7C01FC01E05CFF4F2081022E000CFD
:10390000330B2D5F3F4F6CE0629FC001639F900DB2
:10391000112420917A0230917B02820F931F209113
:103920005806022E000C330B28513109820F931FC9
:103930004091780250917902649F9001659F300D0B
:103940001124820F931F90939E0280939D022091D9
:103950008203222399F020915506223079F4409178
:1039600056064450550B649F9001659F300D1124FD
:10397000820F931F90939E0280939D02F701E0585F
:10398000FE4F8081882309F437C1CE010E94DA09F5
:10399000E701C05CDE4F688180E00E945E048881A0
:1039A0008093B102F701F395608198E26902B0015A
:1039B000112481E00E947E07000F111FF801E053DF
:1039C000FB4F6081718190E080E00E94FB2B20E042
:1039D00030E048EC52E40E94532B6B017C01609173
:1039E0004B0470914C04072E000C880B990B0E941D
:1039F000FD2B9B01AC01C701B6010E94B22C0E94B5
:103A0000CC2B7093060160930501DF91CF911F913C
:103A10000F91FF90EF90DF90CF9008958091C902B1
:103A2000882309F4C8C09A3001F50E94B529609135
:103A3000560670E00E94AC2A182F0E94B5296AE051
:103A400070E00E94AC2A069774F09FEFE091470166
:103A50000E2E000CFF0BE05BFB4F8081199F800D49
:103A60001124808328C091E0F1CF9B3009F053C02E
:103A70000E94B529E09147010E2E000CFF0BE05B80
:103A8000FB4F60918C0270918D020E94AC2ADC0188
:103A9000A458BD4F8C9180830E94B529E0914701C5
:103AA000EE0FFF0BE053FB4F62E870E00E94AC2A80
:103AB000449691838083E09147010E2E000CFF0B0A
:103AC000E05BFB4F8081282F082E000C330B37FF63
:103AD00003C03195219531092D303105BCF021E02D
:103AE00018160CF02FEFDF01A05CBF4F9C91920FD6
:103AF00093300CF092E09E3F0CF49EEF9C936CE0B0
:103B00000E948A2A929F902D112490838081082EF2
:103B1000000C990BA4CE9C3071F60E94B52968E187
:103B200070E00E94AC2A182F0E94B5296AE070E06C
:103B30000E94AC2A0697ECF18FEFE09147010E2E20
:103B4000000CFF0BE05BFB4F819F802D11248083D5
:103B50000E94B529E09147010E2E000CFF0BE053A7
:103B6000FA4F6AE070E00E94AC2A9C0191E0293093
:103B700031050CF490E090830E94B529E091470153
:103B8000EE0FFF0BE053FB4F62E870E00E94AC2A9F
:103B90004496918380830E94B529E09147010E2EBF
:103BA000000CFF0BE05BFA4F6AE570E00E94AC2A64
:103BB00058CF81E0C2CF933009F055CE80915606A0
:103BC0008851990B820F931F4ACE843F2FEF9207A3
:103BD0000CF069CE2EEF3FEF893EEFEF9E070CF41D
:103BE00056CE2FEF3FEF53CE443019F484589E4FFA
:103BF0006ECE81599E4F6BCE60919D0270919E0258
:103C0000072E000C880B990B0E94FD2B0E94490186
:103C1000BC0180E00E947E07BBCE992309F4F5CE5B
:103C200080915506883009F0F0CE589A81E0D7CDC2
:103C30000F931F93CF9320911B012F5F20931B01A4
:103C4000022E000C330B409151064217130609F067
:103C5000DCF410921B012091E2022223A9F02091B2
:103C6000E3023091E4022F5F3F4F3093E402209350
:103C7000E30240915A06042E000C550B2417350719
:103C80001CF021E02093E1022091B302211104C035
:103C900021E02093B3025A9AC09130010C2F0C2ED0
:103CA000000C110B409198029801205B3B4F44237C
:103CB00019F120543E4F80919702F9018083909131
:103CC0008203992309F46AC080915506811158C076
:103CD00080918E028017110629F580915606C81B27
:103CE0008C2F8F5F8093300187FF2AC090915106FF
:103CF000890F8093300124C04091820320543E4FAD
:103D0000F9012081222331F061E04111D8CF0E94D6
:103D1000B305D5CF442399F2209197022111CFCF3B
:103D200060E0F5CF81E08C0F80933001082E000C0D
:103D3000990B209151062817190611F410923001A1
:103D40008091C902882381F1809155068B50823081
:103D500058F50E94B529E09130010E2E000CFF0BA2
:103D6000E057FA4F64E170E00E94AC2A9C01809118
:103D7000560691E0821713060CF490E0908314C06D
:103D8000813051F48FEF8C0F8093300187FFD8CFB3
:103D9000809151068150ADCF853091F280911B0109
:103DA000809330019111CCCF80913001E82F082E03
:103DB000000CFF0BE057FA4F9081992351F080934C
:103DC000470180919D0290919E0290939C02809366
:103DD0009B0281E08093DE02CF911F910F910895A5
:103DE0001F920F920FB60F9211242F933F938F9330
:103DF0009F93AF93BF938091B9029091BA02A09123
:103E0000BB02B091BC023091B80223E0230F2D37E2
:103E100058F50196A11DB11D2093B8028093B902F7
:103E20009093BA02A093BB02B093BC028091BD02F2
:103E30009091BE02A091BF02B091C0020196A11D57
:103E4000B11D8093BD029093BE02A093BF02B093B8
:103E5000C002BF91AF919F918F913F912F910F9091
:103E60000FBE0F901F90189526E8230F0296A11DF4
:103E7000B11DD2CF1F920F920FB60F9211242F9324
:103E80003F934F935F936F937F938F939F93AF93E2
:103E9000BF93EF93FF93E0910201F0910301099525
:103EA000FF91EF91BF91AF919F918F917F916F9112
:103EB0005F914F913F912F910F900FBE0F901F90E8
:103EC00018951F920F920FB60F9211242F933F93C4
:103ED0004F935F936F937F938F939F93AF93BF9312
:103EE000EF93FF93E0910001F09101010995FF919B
:103EF000EF91BF91AF919F918F917F916F915F9162
:103F00004F913F912F910F900FBE0F901F901895DA
:103F10002FB7F8944091B9025091BA026091BB0258
:103F20007091BC022FBFFC01408351836283738375
:103F30000895CF9380E2EFE4F1E0AFEFB3E00190BA
:103F40000D928A95E1F780E1EFE1F4E0DF01982F2F
:103F50001D929A95E9F71092300410922F04109256
:103F6000420410924104E0E9F5E090E4DF011D9283
:103F70009A95E9F791E0908322E32093500680938D
:103F80005106909352069093530620935406109234
:103F9000550694E09093560698E790935706C8E12B
:103FA000C09358061092590610925A0680934F04F7
:103FB00060914A0170E088E99AE30E94AC2A70930C
:103FC0004E0460934D0470934C0460934B0487E45B
:103FD00094E00E94881F8FE596E00E94881F8BE581
:103FE00096E00E94881F83E696E00E94881FECE618
:103FF000F6E08BE696E0918380838AE082831382E9
:104000008FEF84838583168217821086118612862D
:10401000138614861586C687C787108A118A128A66
:10402000138A148A158A168A178A108E118E87E6CB
:1040300096E00E94881F86E896E0CF910C94881F36
:10404000CF93DF93CDB7DEB76A970FB6F894DEBF94
:104050000FBECDBF789484B5826084BD84B5816085
:1040600084BD85B5826085BD85B5816085BD809143
:104070006E00816080936E001092810080918100BB
:1040800082608093810080918100816080938100B3
:10409000809180008160809380008091B100846075
:1040A0008093B1008091B00081608093B0008091D6
:1040B0007A00846080937A0080917A008260809395
:1040C0007A0080917A00816080937A0080917A00F2
:1040D000806880937A001092C100109248010E947B
:1040E0003D0D85E992E0909393028093920284E9DA
:1040F00092E0909391028093900280E595E0E0ED4C
:10410000F4E020E530E0219331938E179F07D9F733
:1041100061E080E00E948C0461E082E00E948C04F7
:1041200062E083E00E948C0462E084E00E948C04E0
:104130008FE195E0909303018093020180916900E3
:10414000837F886080936900E99A1092530680917A
:10415000510680934F0470E060E087EB92E00E948C
:104160005C0670E060E087EB92E00E9486060E94A9
:10417000F40261E08AE00E948C0461E089E00E9420
:104180008C0461E088E00E948C0461E081E00E9480
:104190008C042A9A299A289A599A85E992E0909350
:1041A000DA028093D90284E992E09093D702809357
:1041B000D60207EB12E01093E0020093DF0260E00A
:1041C00080E00E948C0460E081E00E948C0460E04A
:1041D00082E00E948C0460E083E00E948C04809165
:1041E0007A00866080937A001093EB030093EA03D1
:1041F0000E941E0D0E941E0D0E941E0D0E941E0D8B
:1042000081E08093D5038CB58F7D8CBD0E947D05A8
:1042100061E080916E060E948C0461E080916E06E0
:104220000E945E0460E080916E060E945E0480E45D
:104230000E94C2068AE00E94C20688E10E94C2066D
:1042400061E080916E060E945E0410916F06110F6E
:104250001E70106460E080916E060E945E04812FE3
:104260000E94C20680E00E94C20600E716E0F6E85F
:10427000EF2EF6E0FF2ED8018D918D010E94C2062F
:10428000E016F106C1F761E080916E060E945E04BF
:1042900010E004E0010F61E0802F0E942A0761E036
:1042A000802F0E94EF0662E0812F0E942A0762E0C1
:1042B00088E0810F0E942A0762E08CE0810F0E9453
:1042C0002A071F5F143029F761E08FE00E942A0758
:1042D00062E08EE00E942A070E94BC080E94BC088F
:1042E0000E94BC080E94BC0881E08093C40361E086
:1042F00085E00E948C0461E087E00E948C0461E00C
:1043000086E00E948C045D985F985E9890E080E063
:104310000E940C0262E083E10E948C0462E082E170
:104320000E948C0480E190E00E94012A80930401A5
:1043300061E089E00E948C040E947D0580EA93E0A0
:104340009093A9028093A80287EB92E09093860352
:104350008093850384E190E00E94012A8093E90321
:104360006AEBE62E61E0F62E7AEAC72E71E0D72ED0
:10437000E8ECAE2EE1E0BE2E01E02998F7011191A4
:104380007F01612F6095617085E00E945E0411FBE2
:10439000662760F9602786E00E945E0412FB6627AC
:1043A00060F9602787E00E945E048CB580628CBD56
:1043B000D6018D916D0180950E94C20680E00E9419
:1043C000C206299A66E470E080E090E00E94ED0465
:1043D000AE14BF0491F664E670E080E090E00E94C5
:1043E000ED0487EB92E09093670380936603EEEC15
:1043F000F1E0E491F0E0EE0FFF1FE454FE4F059171
:1044000014911093C4020093C302E2EEF1E0F49021
:10441000F092C2020E947D0561E088E00E948C0457
:10442000F80182818F298283CE0101960E94CE07F6
:104430008981811176C18A8181117CC18B81811131
:1044400079C184E592E00E94810236E2432E33E096
:10445000532E48E9842E43E0942EFF24F39484E005
:10446000E82E97E0692E712C20E0222E20E0322EDB
:104470008091C702882309F48BC00E94010F882312
:1044800009F486C0809150068983809151068A8301
:10449000809152068B83809153068C8380915406C1
:1044A0008D83809155068E83809156068F838091EF
:1044B00057068887809158068987809159068A8790
:1044C00080915A068B87E6EEF2E0A0EDB4E08C9185
:1044D00011969C9111971296919387AF4E165F0695
:1044E000B1F7CE010D960E94D7128EE0FE013D96E7
:1044F000A8E6B3E001900D928A95E1F740E450E020
:1045000060E070E080E594E00E940B1040E450E031
:1045100060E070E080E994E00E940B1040E850E019
:1045200060E070E086EE92E00E940B1040E450E004
:1045300060E070E080E595E00E940B1040E450E000
:1045400060E070E080E995E00E940B1040E450E0EC
:1045500060E070E080ED95E00E940B1048E050E0D4
:1045600060E070E0CE0101960E940B1044E050E044
:1045700060E070E0CE0109960E940B1040E450E02C
:1045800060E070E080E196E00E940B101092C7029C
:104590000E94BC081A8619868091C0039091C103BD
:1045A000892B91F18091BC039091BD038F5F87703F
:1045B00090E0FC01EE0FFF1FE455FC4FC080D1805E
:1045C000DA86C9869093BD038093BC038091C003B3
:1045D0009091C10301979093C1038093C00386011A
:1045E00011275601AA24B1E0BB22003111050CF0BD
:1045F00078C2AB2809F472C280918403813009F03B
:10460000FBC0C8010E94FB0D1092A5021092A402EB
:10461000E0919602EE0FEE0FE093960286B190E0E5
:1046200044E0959587954A95E1F783709927E82BA3
:10463000E0939602EF70F0E0E653FE4F8081082E83
:10464000000C990B0097F1F02091A2023091A30287
:10465000820F931F9093A3028093A2029C012D5F6F
:104660003F4F2730310570F0181619060CF0A1C322
:1046700081E090E09093A5028093A4021092A3029F
:104680001092A202409104012091A4023091A5024F
:104690004203C001439F900D1124009711F00E9426
:1046A000DB15809184038B7F51F40E941E0D809155
:1046B000FA03882321F00E94C4020E949F0D8FE517
:1046C00096E00E945308672B682B692B09F401C4FC
:1046D00040E050E0BA018FE596E00E940D08E091BD
:1046E000AD02F0E0C3018E1B9F0B21E030E001C062
:1046F000220F8A95EAF7EE0FFF1FEE0FFF1FDF0173
:10470000A857BC4FE352FE4F55E040EF515009F41B
:1047100053C38D91619101C0880F6A95EAF7480FE4
:10472000F5CF8F3F39F48A818F3F21F48B818F3F02
:1047300009F487CECE0101960E94240561307105EF
:104740008105914008F444C080E591E00E94F102A7
:10475000EF2CE0948981813011F5D80112968C916B
:1047600012978E2112968C9380E897E10E94600543
:10477000D8011296EC911297FE2A1296FC9289812A
:10478000803241F181E09981913031F5982F946028
:104790002D81211102C0982F9461892F20C0F8012A
:1047A00082818E21828386E00E94C206D801129601
:1047B0008C9112978F2912968C93129712968C9146
:1047C00012978E2112968C9387EB0E94C206D0CF4F
:1047D00080E0D9CF89E0D7CF903251F482608093C6
:1047E000C602CE0101960E94CE070E948E0D2DCEEC
:1047F0009F3EA9F78062F3CF8091CB02882309F412
:1048000014C1083011050CF092C0043011050CF0F1
:10481000FBCE8091A102882309F479C040918303E3
:1048200050E09A0164E0220F331F6A95E1F7C80156
:1048300074E0880F991F7A95E1F7DC01A057BA4F11
:10484000F901E057FA4F60E101900D926A95E1F7A6
:10485000DC01A057BB4FF901E057FB4F60E101902D
:104860000D926A95E1F7DC01A05BBB4FF901E05BBB
:10487000FB4F60E101900D926A95E1F7D801E5E008
:10488000AA0FBB1FEA95E1F7A053BB4FFA0115E051
:10489000EE0FFF1F1A95E1F7E053FB4F40E2019046
:1048A0000D924A95E1F7DC01A05BBA4FF901E05B9C
:1048B000FA4F40E101900D924A95E1F7DC01A053D7
:1048C000BA4FF901E053FA4F40E101900D924A9539
:1048D000E1F7DC01A05FB94FF901E05FF94F80E13A
:1048E00001900D928A95E1F788E592E00E9481029D
:1048F00041E050E064E670E081E00E9426081092FA
:10490000A102C09283038C2D0E94650D7DCE1C8276
:104910001B828BE5898382E48A8381E38C0D8B8300
:10492000CE0101960E948102F092A102EACF0E30E0
:104930001105B9F10F301105F1F00D30110509F035
:104940006BC00E949F0DF09284030E943D0D8091E8
:10495000D80290E00E94FB0D84E792E00E94810261
:1049600080E1E8E0F1E0A8E8B3E001900D928A95DB
:10497000E1F7589A49CEE0928403F092CA028091FE
:1049800007018F3041F480E1809307018CE592E0CC
:104990000E94810239CE8FE08093070180E692E089
:1049A000F7CF84E692E00E9481020E94C803109231
:1049B000830380E00E94650D8091DB028F5F80930E
:1049C000DB028330D1F030F4823009F01DCE88E66E
:1049D00092E0DECF8430A1F0853009F015CE0E9440
:1049E0005C0E90E080E00E940C021092DB0250E02E
:1049F00040E064E670E080E00CC08CE692E0C8CF56
:104A000080E792E00E94810250E040E064EF71E0B4
:104A100081E00E942608F8CDE0928403C09207014D
:104A200090E080E00E94DB15EFCD8091C1028823E9
:104A300059F0C394C09219018C2D90E00E940C0291
:104A400081E00E949415E0CD8091C802882359F03E
:104A5000C394C09219018C2D90E00E940C0281E059
:104A60000E94CE17D1CD0E949F0D80918303E0E17B
:104A70008E9FD00111240A0F1B1F2091E703309154
:104A8000E803F801E05BFB4F0217130731F0DF0189
:104A9000A05CBE4F9C91911105C0E05CFE4F9081DF
:104AA0009F2590831093E8030093E703909184037C
:104AB000911102C00E94650D0E948F0B0E94C402DA
:104AC000E091E703F091E803E053FA4F60818CB581
:104AD0008F7D8CBD8FE00E94EF0696CD1092A102D3
:104AE00093CDDD24D394A114B10409F4D12CF801A1
:104AF0007097E730F105B0F4E058FA4D0C94C02AF5
:104B000087259725E825EC2511269F26F025D092AC
:104B1000CB02AB2819F00E949F0D04C01092A10295
:104B20001092DB02D092AB030E9400026DCDAB2845
:104B3000C9F38091CB02882369F0E8E8F3E0119291
:104B40008E169F06E1F7809183030E94650D0E94F7
:104B50002A04E8CF80918403813021F30E949F0DC5
:104B6000E8E8F3E011928E169F06E1F78091830347
:104B70000E94650D0091DF021091E0028091E50234
:104B80008F258093E502811103C058981092B102DD
:104B900040E050E0BA0187E494E00E940D08809163
:104BA0004D0490914E0490934C0480934B0480915B
:104BB0001801882309F4B6CF8091E502882309F40F
:104BC000B1CFC8010E94181EC8010E94C11BAACF04
:104BD0008D2D0E949415A6CF8D2D0E94CE17A2CFA9
:104BE000AB2809F49FCF8091CB02882351F0E0924B
:104BF00084038AE18093070190E080E00E94DB1546
:104C000091CFE091E703F091E803E053FA4F608120
:104C10006F2560838CB58F7D8CBD8FE00E94EF0681
:104C200081CF80918403813009F47CCF8091CB02C5
:104C3000811105C08091A002882309F473C02091DE
:104C40003001AB2841F10091DF021091E002E22F28
:104C5000022E000CFF0BE057FA4FF08220939F02C8
:104C60002093470180919D0290919E0290939C0217
:104C700080939B0287E494E00E94530870939A0209
:104C800060939902C8010E94C11B1092B102589A08
:104C9000D092A00247CFC0909F022C1927FF03C0DB
:104CA00080915106280F0091050110910601409155
:104CB000990250919A028091470490914804A091E2
:104CC0004904B0914A04840F951FA11DB11D200312
:104CD000A001219F500D1124841B950BA109B1093E
:104CE00089839A83AB83BC83CE0101960E945308CB
:104CF0002C2D220F330BF901E053FB4F24E6269FA6
:104D0000A001279F500D1124CA01B8010E94982AC2
:104D1000613921E0720710F060E971E0718360830E
:104D20005898B6CFD092B602D092D303AB2811F4E4
:104D3000109298021092D603D092D403ECCE8091B8
:104D40008403813009F4EECE8091CB02882321F0D8
:104D5000E092840385E14ECFA114B10439F10E94A1
:104D60009F0DE092840349E14093070190E080E0C9
:104D70000E94DB158091DF029091E002D0929702B1
:104D80006D2D0E94B3058091D303882309F4CACE08
:104D9000AB2809F4C7CEE09130010E2E000CFF0BBA
:104DA000E05FF94FF082F0929802BCCE109284033B
:104DB000E1CF8FEF9FEF5ECC4093AB02E092AA026F
:104DC0004095240F2093AC0229988CB580628CBD4D
:104DD0000091A8021091A902D8011696ED91FC91BC
:104DE000E652FE4F61E080810E945E04D801169673
:104DF000ED91FC91E855FC4F80810E94C2068091A4
:104E0000AC020E94C206299AC090A802D090A902C2
:104E1000F6018681978101968330910509F445C09A
:104E20009783868380919F03882309F441C083E69A
:104E300096E00E94530800919D0310919E039801F3
:104E400050E040E0261737074807590788F583E602
:104E500096E00E945308000F111F30E020E0061773
:104E600017072807390770F540E050E0BA0183E6DC
:104E700096E00E940D088091A6029091A7020196EB
:104E80009093A7028093A60220919B0330919C03EC
:104E900012161306BCF428173907A4F410929F03C6
:104EA0001092A7021092A6020DC017821682BACFE6
:104EB000D6011696ED91FC91E652FE4F60E080819E
:104EC0000E945E048091AD028F5F843011F1809367
:104ED000AD020091990310919A03E0918703B0E12C
:104EE000EB9FF0011124E00FF11FE057FA4F808192
:104EF00008571C4F882381F08BE596E00E945308E9
:104F0000F8012081222381F008E512E020E030E062
:104F10000FC01092AD02DDCF8BE596E00E945308E2
:104F2000D8012C91222381F304E610E020E030E048
:104F3000061717072807390710F40E9442088091C6
:104F40008403813009F47BC01091E502111105C082
:104F50008091B502882309F496C087E494E00E940A
:104F600053080E94FB2B20911B01217827FF03C0CF
:104F700021502E6F2F5F213009F068C020917603F9
:104F80003091770340917803509179030E94AD2CC2
:104F900018160CF076C0112309F461C087EB92E07B
:104FA0000E94181E40E050E0BA0187E494E00E949D
:104FB0000D088091DE02882309F441C08091E1024E
:104FC000882321F01092E1020E94671580918303EB
:104FD0000E94650DE09130012E2F0E2E000C330B38
:104FE00080918703B0E18B9FC001112428173907F6
:104FF0006CF04096281739074CF4EF700E2E000C19
:10500000FF0BE857FC4F80818F2580838091B6028B
:10501000882379F08091D603882359F01092D40325
:105020008FEF809349018091F6030E94C50BF092A7
:10503000D4038091DF029091E0020E94C11B2114F1
:10504000310409F415CA0E94000007CA20917A03AE
:1050500030917B0340917C0350917D0397CF8091E9
:10506000B502882381F087EB92E00E94181E40E091
:1050700050E0BA0187E494E00E940D081092B50256
:1050800098CF1092DE0287EB92E00E94DA098091BD
:10509000B302882361F087E494E00E9453086B30E8
:1050A00071058105910518F05A981092B30240914C
:1050B0008203442309F441C080915506853009F4E8
:1050C00079C09091B202992319F0863009F472C028
:1050D000893099F5DD24D394809156068D1508F416
:1050E00069C08091AF029091B002D89E8001D99E94
:1050F000100D11248091B102882309F4DAC087E4ED
:1051000094E00E94530898012550310950E040E096
:10511000261737074807590770F487E494E00E9480
:10512000530830E020E0601771078207930718F4F6
:1051300058981092B102D394CFCF8091B1028823B6
:10514000C9F1E09130010E2E000CFF0B20914701B8
:10515000022E000C330BCF01821B930B0196181605
:10516000190644F0809151068E0F9F2F911D821BCE
:10517000930B0196442309F447C02091550628302B
:1051800009F042C0E057FA4F208121113DC087E469
:1051900094E00E94530820917E0330917F0389019F
:1051A00030E020E0061717072807390718F4589849
:1051B0001092B1028091B40281114FC04C9904C089
:1051C0000E942A04F092B4028091DD02882309F43F
:1051D0006DC080911801882361F040914D04509179
:1051E0004E0470E060E087E494E00E940D081092A5
:1051F0001801F092DD028091AE02882399F110929D
:10520000AE021092DD02D5CE019720914B04309171
:105210004C04829FA001839F500D929F500D11243A
:10522000052E000C660B770B809147049091480483
:10523000A0914904B0914A04841B950BA60BB70BAF
:1052400089839A83AB83BC83CE0101960E94530865
:105250002091050130910601A2CF4C9BB5CF109251
:10526000B402B2CF80915406833340F080911B0189
:1052700080FD04C0F092AE02F092B50287E494E0A3
:105280000E94530870934C0460934B040E9469037E
:1052900087EB92E00E94181E40E050E0BA0187E4DC
:1052A00094E00E940D081092E502ABCF1092DE024E
:1052B00080CE87E494E00E94530830E020E060173D
:1052C00071078207930708F436CF589AF092B1021B
:1052D00032CF8F929F92AF92BF92CF92DF92EF9296
:1052E000FF92CF93DF93EC01688179818A819B8162
:1052F000611571058105910521F464E279ED8BE575
:1053000097E02DE133EF41E050E00E94172A490178
:105310005A019B01AC01A7EAB1E40E94362A6B0155
:105320007C01ACEEB4EFA50194010E94442ADC019B
:10533000CB018C0D9D1DAE1DBF1DB7FF03C0019796
:10534000A109B04888839983AA83BB839F77DF91A3
:10535000CF91FF90EF90DF90CF90BF90AF909F9054
:105360008F9008950E94692908958BE491E00E942E
:1053700069290895B0E0A0E080934B0190934C011F
:10538000A0934D01B0934E010895FB01DC010590FF
:105390000D920020E1F70895BB274A3031F499239C
:1053A00022F4BDE2909581959F4F0C94D829BB279C
:1053B000FB015527AA27880F991FAA1FA41710F0D1
:1053C000A41B83955051B9F7A05DAA3308F0A95DDD
:1053D000A193009779F7B111B1931192CB010C947D
:1053E000F129DC01FC01672F71917723E1F73297F6
:1053F00004C07C916D9370836291AE17BF07C8F3B0
:105400000895F999FECF92BD81BDF89A992780B58C
:105410000895262FF999FECF1FBA92BD81BD20BDF8
:105420000FB6F894FA9AF99A0FBE01960895052ED0
:1054300097FB1EF400940E942E2A57FD07D00E946D
:10544000492A07FC03D04EF40C942E2A509540951F
:10545000309521953F4F4F4F5F4F08959095809520
:10546000709561957F4F8F4F9F4F08950E946B2AD3
:10547000A59F900DB49F900DA49F800D911D1124A8
:105480000895B7FF0C94362A0E94362A821B930B8C
:105490000895A1E21A2EAA1BBB1BFD010DC0AA1F75
:1054A000BB1FEE1FFF1FA217B307E407F50720F08D
:1054B000A21BB30BE40BF50B661F771F881F991F08
:1054C0001A9469F760957095809590959B01AC0151
:1054D000BD01CF010895A29FB001B39FC001A39F5A
:1054E000700D811D1124911DB29F700D811D11241D
:1054F000911D0895DB018F939F930E94362ABF91DF
:10550000AF91A29F800D911DA39F900DB29F900D12
:105510001124089587FB082E062687FD819567FDD7
:1055200061950E94D52A0EF4919507FC8195089506
:10553000AA1BBB1B51E107C0AA1FBB1FA617B707B9
:1055400010F0A61BB70B881F991F5A95A9F78095D5
:105550009095BC01CD01089597FB072E16F4009499
:1055600007D077FD09D00E94982A07FC05D03EF4A9
:10557000909581959F4F0895709561957F4F0895FF
:10558000EE0FFF1F0590F491E02D09940E946B2A05
:10559000332312F48A1B9B0B0C94D02A0E946B2A93
:1055A000B7FF0895821B930B0895991B79E004C0FF
:1055B000991F961708F0961B881F7A95C9F7809552
:1055C00008955058BB27AA270E94F92A0C94732CDF
:1055D0000E94652C38F00E946C2C20F039F49F3F1B
:1055E00019F426F40C94622C0EF4E095E7FB0C946D
:1055F0005C2CE92F0E94842C58F3BA1762077307BA
:105600008407950720F079F4A6F50C94A62C0EF4E7
:10561000E0950B2EBA2FA02D0B01B90190010C01C2
:10562000CA01A0011124FF27591B99F0593F50F4DA
:10563000503E68F11A16F040A22F232F342F442732
:10564000585FF3CF469537952795A795F04053952A
:10565000C9F77EF41F16BA0B620B730B840BBAF0FA
:105660009150A1F0FF0FBB1F661F771F881FC2F765
:105670000EC0BA0F621F731F841F48F48795779579
:105680006795B795F7959E3F08F0B0CF9395880F33
:1056900008F09927EE0F9795879508950E94382C6A
:1056A00008F481E008950E94672B0C94732C0E94EB
:1056B0006C2C58F00E94652C40F029F45F3F29F0D3
:1056C0000C945C2C51110C94A72C0C94622C0E940D
:1056D000842C68F39923B1F3552391F3951B550B53
:1056E000BB27AA2762177307840738F09F5F5F4FB5
:1056F000220F331F441FAA1FA9F335D00E2E3AF0F4
:10570000E0E832D091505040E695001CCAF72BD00B
:10571000FE2F29D0660F771F881FBB1F261737075C
:105720004807AB07B0E809F0BB0B802DBF01FF278E
:1057300093585F4F3AF09E3F510578F00C945C2CE3
:105740000C94A72C5F3FE4F3983ED4F386957795AD
:105750006795B795F7959F5FC9F7880F911D969547
:10576000879597F90895E1E0660F771F881FBB1FA3
:10577000621773078407BA0720F0621B730B840B50
:10578000BA0BEE1F88F7E09508950E94CC2B689421
:10579000B1110C94A72C08950E948C2C88F09F576F
:1057A00098F0B92F9927B751B0F0E1F0660F771F45
:1057B000881F991F1AF0BA95C9F714C0B13091F03B
:1057C0000E94A62CB1E008950C94A62C672F782F88
:1057D0008827B85F39F0B93FCCF386957795679500
:1057E000B395D9F73EF490958095709561957F4F6C
:1057F0008F4F9F4F0895E89409C097FB3EF4909512
:105800008095709561957F4F8F4F9F4F9923A9F099
:10581000F92F96E9BB279395F69587957795679528
:10582000B795F111F8CFFAF4BB0F11F460FF1BC06C
:105830006F5F7F4F8F4F9F4F16C0882311F096E9FF
:1058400011C0772321F09EE8872F762F05C06623AD
:1058500071F096E8862F70E060E02AF09A95660F66
:10586000771F881FDAF7880F9695879597F908951F
:10587000990F0008550FAA0BE0E8FEEF1616170661
:10588000E807F907C0F012161306E407F50798F0C9
:10589000621B730B840B950B39F40A2661F0232BE2
:1058A000242B252B21F408950A2609F4A140A6955E
:1058B0008FEF811D811D089597F99F6780E870E043
:1058C00060E008959FEF80EC089500240A94161676
:1058D000170618060906089500240A9412161306DE
:1058E000140605060895092E0394000C11F488236C
:1058F00052F0BB0F40F4BF2B11F460FF04C06F5F88
:105900007F4F8F4F9F4F089557FD9058440F551F5D
:1059100059F05F3F71F04795880F97FB991F61F031
:105920009F3F79F087950895121613061406551FA8
:10593000F2CF4695F1DF08C0161617061806991F14
:10594000F1CF86957105610508940895E894BB2709
:1059500066277727CB0197F908950E94382C08F421
:105960008FEF08950E94C52C0C94732C0E94652C17
:1059700038F00E946C2C20F0952311F00C945C2CD4
:105980000C94622C11240C94A72C0E94842C70F38C
:10599000959FC1F3950F50E0551F629FF001729FD4
:1059A000BB27F00DB11D639FAA27F00DB11DAA1FE3
:1059B000649F6627B00DA11D661F829F2227B00D30
:1059C000A11D621F739FB00DA11D621F839FA00DBB
:1059D000611D221F749F3327A00D611D231F849F0B
:1059E000600D211D822F762F6A2F11249F57504062
:1059F0009AF0F1F088234AF0EE0FFF1FBB1F661FDD
:105A0000771F881F91505040A9F79E3F510580F0A5
:105A10000C945C2C0C94A72C5F3FE4F3983ED4F3D9
:105A2000869577956795B795F795E7959F5FC1F749
:105A3000FE2B880F911D9695879597F90895DC01A7
:105A400001C06D9341505040E0F70895FB01DC0127
:105A50000D900020E9F7119701900D920020E1F7D9
:105A60000895FB01DC0101900D920020E1F70895FB
:045A7000F894FFCFD8
:105A740023052305010A00080101010101010101B7
:105A84000100000000000101010101FF3030312E4E
:105A940062696E00000000000000000000000000C9
:105AA400FF3200E7030000FCFFFAFFF4FFF1FFEF11
:105AB400FFEEFFEBFFEAFFFF010A78010000000F91
:105AC400000E000D000C000B000A0009000800077E
:105AD40000060005000400030002000100000000AD
